{
	"data": {
		"bytecode": {
			"linkReferences": {},
			"object": "6080604052348015600e575f80fd5b5061141c8061001c5f395ff3fe608060405260043610610054575f3560e01c80630374ab0b146100585780630b79143014610080578063298ec208146100c157806361b8ce8c146100dd578063dae7a13c14610107578063f086a09b14610143575b5f80fd5b348015610063575f80fd5b5061007e60048036038101906100799190610982565b61016b565b005b34801561008b575f80fd5b506100a660048036038101906100a19190610a02565b6102e6565b6040516100b896959493929190610adb565b60405180910390f35b6100db60048036038101906100d69190610b41565b6103c2565b005b3480156100e8575f80fd5b506100f16105da565b6040516100fe9190610b7f565b60405180910390f35b348015610112575f80fd5b5061012d60048036038101906101289190610bc2565b6105e0565b60405161013a9190610b7f565b60405180910390f35b34801561014e575f80fd5b5061016960048036038101906101649190610c00565b610600565b005b4283116101ad576040517f08c379a00000000000000000000000000000000000000000000000000000000081526004016101a490610cc0565b60405180910390fd5b5f81116101ef576040517f08c379a00000000000000000000000000000000000000000000000000000000081526004016101e690610d4e565b60405180910390fd5b6040518060c001604052803373ffffffffffffffffffffffffffffffffffffffff168152602001858152602001848152602001838152602001828152602001828152505f8060025481526020019081526020015f205f820151815f015f6101000a81548173ffffffffffffffffffffffffffffffffffffffff021916908373ffffffffffffffffffffffffffffffffffffffff160217905550602082015181600101908161029d9190610f66565b5060408201518160020155606082015181600301556080820151816004015560a0820151816005015590505060025f8154809291906102db90611062565b919050555050505050565b5f602052805f5260405f205f91509050805f015f9054906101000a900473ffffffffffffffffffffffffffffffffffffffff169080600101805461032990610d99565b80601f016020809104026020016040519081016040528092919081815260200182805461035590610d99565b80156103a05780601f10610377576101008083540402835291602001916103a0565b820191905f5260205f20905b81548152906001019060200180831161038357829003601f168201915b5050505050908060020154908060030154908060040154908060050154905086565b5f805f8481526020019081526020015f206002015403610417576040517f08c379a000000000000000000000000000000000000000000000000000000000815260040161040e906110f3565b60405180910390fd5b425f808481526020019081526020015f20600201541161046c576040517f08c379a00000000000000000000000000000000000000000000000000000000081526004016104639061115b565b60405180910390fd5b5f81116104ae576040517f08c379a00000000000000000000000000000000000000000000000000000000081526004016104a5906111e9565b60405180910390fd5b5f805f8481526020019081526020015f2090508181600301546104d19190611207565b3414610512576040517f08c379a000000000000000000000000000000000000000000000000000000000815260040161050990611292565b60405180910390fd5b8181600501541015610559576040517f08c379a0000000000000000000000000000000000000000000000000000000008152600401610550906112fa565b60405180910390fd5b81816005015f82825461056c9190611318565b925050819055508160015f3373ffffffffffffffffffffffffffffffffffffffff1673ffffffffffffffffffffffffffffffffffffffff1681526020019081526020015f205f8581526020019081526020015f205f8282546105ce919061134b565b92505081905550505050565b60025481565b6001602052815f5260405f20602052805f5260405f205f91509150505481565b5f805f8581526020019081526020015f206002015403610655576040517f08c379a000000000000000000000000000000000000000000000000000000000815260040161064c906110f3565b60405180910390fd5b425f808581526020019081526020015f2060020154116106aa576040517f08c379a00000000000000000000000000000000000000000000000000000000081526004016106a19061115b565b60405180910390fd5b8160015f3373ffffffffffffffffffffffffffffffffffffffff1673ffffffffffffffffffffffffffffffffffffffff1681526020019081526020015f205f8581526020019081526020015f20541015610739576040517f08c379a0000000000000000000000000000000000000000000000000000000008152600401610730906113c8565b60405180910390fd5b8160015f3373ffffffffffffffffffffffffffffffffffffffff1673ffffffffffffffffffffffffffffffffffffffff1681526020019081526020015f205f8581526020019081526020015f205f8282546107949190611318565b925050819055508160015f8373ffffffffffffffffffffffffffffffffffffffff1673ffffffffffffffffffffffffffffffffffffffff1681526020019081526020015f205f8581526020019081526020015f205f8282546107f6919061134b565b92505081905550505050565b5f604051905090565b5f80fd5b5f80fd5b5f80fd5b5f80fd5b5f601f19601f8301169050919050565b7f4e487b71000000000000000000000000000000000000000000000000000000005f52604160045260245ffd5b6108618261081b565b810181811067ffffffffffffffff821117156108805761087f61082b565b5b80604052505050565b5f610892610802565b905061089e8282610858565b919050565b5f67ffffffffffffffff8211156108bd576108bc61082b565b5b6108c68261081b565b9050602081019050919050565b828183375f83830152505050565b5f6108f36108ee846108a3565b610889565b90508281526020810184848401111561090f5761090e610817565b5b61091a8482856108d3565b509392505050565b5f82601f83011261093657610935610813565b5b81356109468482602086016108e1565b91505092915050565b5f819050919050565b6109618161094f565b811461096b575f80fd5b50565b5f8135905061097c81610958565b92915050565b5f805f806080858703121561099a5761099961080b565b5b5f85013567ffffffffffffffff8111156109b7576109b661080f565b5b6109c387828801610922565b94505060206109d48782880161096e565b93505060406109e58782880161096e565b92505060606109f68782880161096e565b91505092959194509250565b5f60208284031215610a1757610a1661080b565b5b5f610a248482850161096e565b91505092915050565b5f73ffffffffffffffffffffffffffffffffffffffff82169050919050565b5f610a5682610a2d565b9050919050565b610a6681610a4c565b82525050565b5f81519050919050565b5f82825260208201905092915050565b8281835e5f83830152505050565b5f610a9e82610a6c565b610aa88185610a76565b9350610ab8818560208601610a86565b610ac18161081b565b840191505092915050565b610ad58161094f565b82525050565b5f60c082019050610aee5f830189610a5d565b8181036020830152610b008188610a94565b9050610b0f6040830187610acc565b610b1c6060830186610acc565b610b296080830185610acc565b610b3660a0830184610acc565b979650505050505050565b5f8060408385031215610b5757610b5661080b565b5b5f610b648582860161096e565b9250506020610b758582860161096e565b9150509250929050565b5f602082019050610b925f830184610acc565b92915050565b610ba181610a4c565b8114610bab575f80fd5b50565b5f81359050610bbc81610b98565b92915050565b5f8060408385031215610bd857610bd761080b565b5b5f610be585828601610bae565b9250506020610bf68582860161096e565b9150509250929050565b5f805f60608486031215610c1757610c1661080b565b5b5f610c248682870161096e565b9350506020610c358682870161096e565b9250506040610c4686828701610bae565b9150509250925092565b7f796f752063616e206f7267616e697a65206576656e7420666f722066757475725f8201527f6520646174650000000000000000000000000000000000000000000000000000602082015250565b5f610caa602683610a76565b9150610cb582610c50565b604082019050919050565b5f6020820190508181035f830152610cd781610c9e565b9050919050565b7f796f752063616e206f7267616e697a65206576656e7420696620796f752063725f8201527f65617465206d6f7265207468656e2030207469636b6574730000000000000000602082015250565b5f610d38603883610a76565b9150610d4382610cde565b604082019050919050565b5f6020820190508181035f830152610d6581610d2c565b9050919050565b7f4e487b71000000000000000000000000000000000000000000000000000000005f52602260045260245ffd5b5f6002820490506001821680610db057607f821691505b602082108103610dc357610dc2610d6c565b5b50919050565b5f819050815f5260205f209050919050565b5f6020601f8301049050919050565b5f82821b905092915050565b5f60088302610e257fffffffffffffffffffffffffffffffffffffffffffffffffffffffffffffffff82610dea565b610e2f8683610dea565b95508019841693508086168417925050509392505050565b5f819050919050565b5f610e6a610e65610e608461094f565b610e47565b61094f565b9050919050565b5f819050919050565b610e8383610e50565b610e97610e8f82610e71565b848454610df6565b825550505050565b5f90565b610eab610e9f565b610eb6818484610e7a565b505050565b5b81811015610ed957610ece5f82610ea3565b600181019050610ebc565b5050565b601f821115610f1e57610eef81610dc9565b610ef884610ddb565b81016020851015610f07578190505b610f1b610f1385610ddb565b830182610ebb565b50505b505050565b5f82821c905092915050565b5f610f3e5f1984600802610f23565b1980831691505092915050565b5f610f568383610f2f565b9150826002028217905092915050565b610f6f82610a6c565b67ffffffffffffffff811115610f8857610f8761082b565b5b610f928254610d99565b610f9d828285610edd565b5f60209050601f831160018114610fce575f8415610fbc578287015190505b610fc68582610f4b565b86555061102d565b601f198416610fdc86610dc9565b5f5b8281101561100357848901518255600182019150602085019450602081019050610fde565b86831015611020578489015161101c601f891682610f2f565b8355505b6001600288020188555050505b505050505050565b7f4e487b71000000000000000000000000000000000000000000000000000000005f52601160045260245ffd5b5f61106c8261094f565b91507fffffffffffffffffffffffffffffffffffffffffffffffffffffffffffffffff820361109e5761109d611035565b5b600182019050919050565b7f4576656e7420646f6573206e6f742065786973740000000000000000000000005f82015250565b5f6110dd601483610a76565b91506110e8826110a9565b602082019050919050565b5f6020820190508181035f83015261110a816110d1565b9050919050565b7f4576656e742068617320616c7265616479206f6363757265642e0000000000005f82015250565b5f611145601a83610a76565b915061115082611111565b602082019050919050565b5f6020820190508181035f83015261117281611139565b9050919050565b7f4d696e696d756e2031207469636b6574207175616e7469747920796f752062755f8201527f7900000000000000000000000000000000000000000000000000000000000000602082015250565b5f6111d3602183610a76565b91506111de82611179565b604082019050919050565b5f6020820190508181035f830152611200816111c7565b9050919050565b5f6112118261094f565b915061121c8361094f565b925082820261122a8161094f565b9150828204841483151761124157611240611035565b5b5092915050565b7f4574686572206973206e6f7420656e6f756768000000000000000000000000005f82015250565b5f61127c601383610a76565b915061128782611248565b602082019050919050565b5f6020820190508181035f8301526112a981611270565b9050919050565b7f4e6f7420656e6f756768207469636b65747300000000000000000000000000005f82015250565b5f6112e4601283610a76565b91506112ef826112b0565b602082019050919050565b5f6020820190508181035f830152611311816112d8565b9050919050565b5f6113228261094f565b915061132d8361094f565b925082820390508181111561134557611344611035565b5b92915050565b5f6113558261094f565b91506113608361094f565b925082820190508082111561137857611377611035565b5b92915050565b7f796f7520646f206e6f74206861766520656e6f756768207469636b65747300005f82015250565b5f6113b2601e83610a76565b91506113bd8261137e565b602082019050919050565b5f6020820190508181035f8301526113df816113a6565b905091905056fea264697066735822122055fc8448a0aa36d242c0c7cde5d101652515a75be7f2f1fc39506f09ec1b804f64736f6c634300081a0033",
			"opcodes": "PUSH1 0x80 PUSH1 0x40 MSTORE CALLVALUE DUP1 ISZERO PUSH1 0xE JUMPI PUSH0 DUP1 REVERT JUMPDEST POP PUSH2 0x141C DUP1 PUSH2 0x1C PUSH0 CODECOPY PUSH0 RETURN INVALID PUSH1 0x80 PUSH1 0x40 MSTORE PUSH1 0x4 CALLDATASIZE LT PUSH2 0x54 JUMPI PUSH0 CALLDATALOAD PUSH1 0xE0 SHR DUP1 PUSH4 0x374AB0B EQ PUSH2 0x58 JUMPI DUP1 PUSH4 0xB791430 EQ PUSH2 0x80 JUMPI DUP1 PUSH4 0x298EC208 EQ PUSH2 0xC1 JUMPI DUP1 PUSH4 0x61B8CE8C EQ PUSH2 0xDD JUMPI DUP1 PUSH4 0xDAE7A13C EQ PUSH2 0x107 JUMPI DUP1 PUSH4 0xF086A09B EQ PUSH2 0x143 JUMPI JUMPDEST PUSH0 DUP1 REVERT JUMPDEST CALLVALUE DUP1 ISZERO PUSH2 0x63 JUMPI PUSH0 DUP1 REVERT JUMPDEST POP PUSH2 0x7E PUSH1 0x4 DUP1 CALLDATASIZE SUB DUP2 ADD SWAP1 PUSH2 0x79 SWAP2 SWAP1 PUSH2 0x982 JUMP JUMPDEST PUSH2 0x16B JUMP JUMPDEST STOP JUMPDEST CALLVALUE DUP1 ISZERO PUSH2 0x8B JUMPI PUSH0 DUP1 REVERT JUMPDEST POP PUSH2 0xA6 PUSH1 0x4 DUP1 CALLDATASIZE SUB DUP2 ADD SWAP1 PUSH2 0xA1 SWAP2 SWAP1 PUSH2 0xA02 JUMP JUMPDEST PUSH2 0x2E6 JUMP JUMPDEST PUSH1 0x40 MLOAD PUSH2 0xB8 SWAP7 SWAP6 SWAP5 SWAP4 SWAP3 SWAP2 SWAP1 PUSH2 0xADB JUMP JUMPDEST PUSH1 0x40 MLOAD DUP1 SWAP2 SUB SWAP1 RETURN JUMPDEST PUSH2 0xDB PUSH1 0x4 DUP1 CALLDATASIZE SUB DUP2 ADD SWAP1 PUSH2 0xD6 SWAP2 SWAP1 PUSH2 0xB41 JUMP JUMPDEST PUSH2 0x3C2 JUMP JUMPDEST STOP JUMPDEST CALLVALUE DUP1 ISZERO PUSH2 0xE8 JUMPI PUSH0 DUP1 REVERT JUMPDEST POP PUSH2 0xF1 PUSH2 0x5DA JUMP JUMPDEST PUSH1 0x40 MLOAD PUSH2 0xFE SWAP2 SWAP1 PUSH2 0xB7F JUMP JUMPDEST PUSH1 0x40 MLOAD DUP1 SWAP2 SUB SWAP1 RETURN JUMPDEST CALLVALUE DUP1 ISZERO PUSH2 0x112 JUMPI PUSH0 DUP1 REVERT JUMPDEST POP PUSH2 0x12D PUSH1 0x4 DUP1 CALLDATASIZE SUB DUP2 ADD SWAP1 PUSH2 0x128 SWAP2 SWAP1 PUSH2 0xBC2 JUMP JUMPDEST PUSH2 0x5E0 JUMP JUMPDEST PUSH1 0x40 MLOAD PUSH2 0x13A SWAP2 SWAP1 PUSH2 0xB7F JUMP JUMPDEST PUSH1 0x40 MLOAD DUP1 SWAP2 SUB SWAP1 RETURN JUMPDEST CALLVALUE DUP1 ISZERO PUSH2 0x14E JUMPI PUSH0 DUP1 REVERT JUMPDEST POP PUSH2 0x169 PUSH1 0x4 DUP1 CALLDATASIZE SUB DUP2 ADD SWAP1 PUSH2 0x164 SWAP2 SWAP1 PUSH2 0xC00 JUMP JUMPDEST PUSH2 0x600 JUMP JUMPDEST STOP JUMPDEST TIMESTAMP DUP4 GT PUSH2 0x1AD JUMPI PUSH1 0x40 MLOAD PUSH32 0x8C379A000000000000000000000000000000000000000000000000000000000 DUP2 MSTORE PUSH1 0x4 ADD PUSH2 0x1A4 SWAP1 PUSH2 0xCC0 JUMP JUMPDEST PUSH1 0x40 MLOAD DUP1 SWAP2 SUB SWAP1 REVERT JUMPDEST PUSH0 DUP2 GT PUSH2 0x1EF JUMPI PUSH1 0x40 MLOAD PUSH32 0x8C379A000000000000000000000000000000000000000000000000000000000 DUP2 MSTORE PUSH1 0x4 ADD PUSH2 0x1E6 SWAP1 PUSH2 0xD4E JUMP JUMPDEST PUSH1 0x40 MLOAD DUP1 SWAP2 SUB SWAP1 REVERT JUMPDEST PUSH1 0x40 MLOAD DUP1 PUSH1 0xC0 ADD PUSH1 0x40 MSTORE DUP1 CALLER PUSH20 0xFFFFFFFFFFFFFFFFFFFFFFFFFFFFFFFFFFFFFFFF AND DUP2 MSTORE PUSH1 0x20 ADD DUP6 DUP2 MSTORE PUSH1 0x20 ADD DUP5 DUP2 MSTORE PUSH1 0x20 ADD DUP4 DUP2 MSTORE PUSH1 0x20 ADD DUP3 DUP2 MSTORE PUSH1 0x20 ADD DUP3 DUP2 MSTORE POP PUSH0 DUP1 PUSH1 0x2 SLOAD DUP2 MSTORE PUSH1 0x20 ADD SWAP1 DUP2 MSTORE PUSH1 0x20 ADD PUSH0 KECCAK256 PUSH0 DUP3 ADD MLOAD DUP2 PUSH0 ADD PUSH0 PUSH2 0x100 EXP DUP2 SLOAD DUP2 PUSH20 0xFFFFFFFFFFFFFFFFFFFFFFFFFFFFFFFFFFFFFFFF MUL NOT AND SWAP1 DUP4 PUSH20 0xFFFFFFFFFFFFFFFFFFFFFFFFFFFFFFFFFFFFFFFF AND MUL OR SWAP1 SSTORE POP PUSH1 0x20 DUP3 ADD MLOAD DUP2 PUSH1 0x1 ADD SWAP1 DUP2 PUSH2 0x29D SWAP2 SWAP1 PUSH2 0xF66 JUMP JUMPDEST POP PUSH1 0x40 DUP3 ADD MLOAD DUP2 PUSH1 0x2 ADD SSTORE PUSH1 0x60 DUP3 ADD MLOAD DUP2 PUSH1 0x3 ADD SSTORE PUSH1 0x80 DUP3 ADD MLOAD DUP2 PUSH1 0x4 ADD SSTORE PUSH1 0xA0 DUP3 ADD MLOAD DUP2 PUSH1 0x5 ADD SSTORE SWAP1 POP POP PUSH1 0x2 PUSH0 DUP2 SLOAD DUP1 SWAP3 SWAP2 SWAP1 PUSH2 0x2DB SWAP1 PUSH2 0x1062 JUMP JUMPDEST SWAP2 SWAP1 POP SSTORE POP POP POP POP POP JUMP JUMPDEST PUSH0 PUSH1 0x20 MSTORE DUP1 PUSH0 MSTORE PUSH1 0x40 PUSH0 KECCAK256 PUSH0 SWAP2 POP SWAP1 POP DUP1 PUSH0 ADD PUSH0 SWAP1 SLOAD SWAP1 PUSH2 0x100 EXP SWAP1 DIV PUSH20 0xFFFFFFFFFFFFFFFFFFFFFFFFFFFFFFFFFFFFFFFF AND SWAP1 DUP1 PUSH1 0x1 ADD DUP1 SLOAD PUSH2 0x329 SWAP1 PUSH2 0xD99 JUMP JUMPDEST DUP1 PUSH1 0x1F ADD PUSH1 0x20 DUP1 SWAP2 DIV MUL PUSH1 0x20 ADD PUSH1 0x40 MLOAD SWAP1 DUP2 ADD PUSH1 0x40 MSTORE DUP1 SWAP3 SWAP2 SWAP1 DUP2 DUP2 MSTORE PUSH1 0x20 ADD DUP3 DUP1 SLOAD PUSH2 0x355 SWAP1 PUSH2 0xD99 JUMP JUMPDEST DUP1 ISZERO PUSH2 0x3A0 JUMPI DUP1 PUSH1 0x1F LT PUSH2 0x377 JUMPI PUSH2 0x100 DUP1 DUP4 SLOAD DIV MUL DUP4 MSTORE SWAP2 PUSH1 0x20 ADD SWAP2 PUSH2 0x3A0 JUMP JUMPDEST DUP3 ADD SWAP2 SWAP1 PUSH0 MSTORE PUSH1 0x20 PUSH0 KECCAK256 SWAP1 JUMPDEST DUP2 SLOAD DUP2 MSTORE SWAP1 PUSH1 0x1 ADD SWAP1 PUSH1 0x20 ADD DUP1 DUP4 GT PUSH2 0x383 JUMPI DUP3 SWAP1 SUB PUSH1 0x1F AND DUP3 ADD SWAP2 JUMPDEST POP POP POP POP POP SWAP1 DUP1 PUSH1 0x2 ADD SLOAD SWAP1 DUP1 PUSH1 0x3 ADD SLOAD SWAP1 DUP1 PUSH1 0x4 ADD SLOAD SWAP1 DUP1 PUSH1 0x5 ADD SLOAD SWAP1 POP DUP7 JUMP JUMPDEST PUSH0 DUP1 PUSH0 DUP5 DUP2 MSTORE PUSH1 0x20 ADD SWAP1 DUP2 MSTORE PUSH1 0x20 ADD PUSH0 KECCAK256 PUSH1 0x2 ADD SLOAD SUB PUSH2 0x417 JUMPI PUSH1 0x40 MLOAD PUSH32 0x8C379A000000000000000000000000000000000000000000000000000000000 DUP2 MSTORE PUSH1 0x4 ADD PUSH2 0x40E SWAP1 PUSH2 0x10F3 JUMP JUMPDEST PUSH1 0x40 MLOAD DUP1 SWAP2 SUB SWAP1 REVERT JUMPDEST TIMESTAMP PUSH0 DUP1 DUP5 DUP2 MSTORE PUSH1 0x20 ADD SWAP1 DUP2 MSTORE PUSH1 0x20 ADD PUSH0 KECCAK256 PUSH1 0x2 ADD SLOAD GT PUSH2 0x46C JUMPI PUSH1 0x40 MLOAD PUSH32 0x8C379A000000000000000000000000000000000000000000000000000000000 DUP2 MSTORE PUSH1 0x4 ADD PUSH2 0x463 SWAP1 PUSH2 0x115B JUMP JUMPDEST PUSH1 0x40 MLOAD DUP1 SWAP2 SUB SWAP1 REVERT JUMPDEST PUSH0 DUP2 GT PUSH2 0x4AE JUMPI PUSH1 0x40 MLOAD PUSH32 0x8C379A000000000000000000000000000000000000000000000000000000000 DUP2 MSTORE PUSH1 0x4 ADD PUSH2 0x4A5 SWAP1 PUSH2 0x11E9 JUMP JUMPDEST PUSH1 0x40 MLOAD DUP1 SWAP2 SUB SWAP1 REVERT JUMPDEST PUSH0 DUP1 PUSH0 DUP5 DUP2 MSTORE PUSH1 0x20 ADD SWAP1 DUP2 MSTORE PUSH1 0x20 ADD PUSH0 KECCAK256 SWAP1 POP DUP2 DUP2 PUSH1 0x3 ADD SLOAD PUSH2 0x4D1 SWAP2 SWAP1 PUSH2 0x1207 JUMP JUMPDEST CALLVALUE EQ PUSH2 0x512 JUMPI PUSH1 0x40 MLOAD PUSH32 0x8C379A000000000000000000000000000000000000000000000000000000000 DUP2 MSTORE PUSH1 0x4 ADD PUSH2 0x509 SWAP1 PUSH2 0x1292 JUMP JUMPDEST PUSH1 0x40 MLOAD DUP1 SWAP2 SUB SWAP1 REVERT JUMPDEST DUP2 DUP2 PUSH1 0x5 ADD SLOAD LT ISZERO PUSH2 0x559 JUMPI PUSH1 0x40 MLOAD PUSH32 0x8C379A000000000000000000000000000000000000000000000000000000000 DUP2 MSTORE PUSH1 0x4 ADD PUSH2 0x550 SWAP1 PUSH2 0x12FA JUMP JUMPDEST PUSH1 0x40 MLOAD DUP1 SWAP2 SUB SWAP1 REVERT JUMPDEST DUP2 DUP2 PUSH1 0x5 ADD PUSH0 DUP3 DUP3 SLOAD PUSH2 0x56C SWAP2 SWAP1 PUSH2 0x1318 JUMP JUMPDEST SWAP3 POP POP DUP2 SWAP1 SSTORE POP DUP2 PUSH1 0x1 PUSH0 CALLER PUSH20 0xFFFFFFFFFFFFFFFFFFFFFFFFFFFFFFFFFFFFFFFF AND PUSH20 0xFFFFFFFFFFFFFFFFFFFFFFFFFFFFFFFFFFFFFFFF AND DUP2 MSTORE PUSH1 0x20 ADD SWAP1 DUP2 MSTORE PUSH1 0x20 ADD PUSH0 KECCAK256 PUSH0 DUP6 DUP2 MSTORE PUSH1 0x20 ADD SWAP1 DUP2 MSTORE PUSH1 0x20 ADD PUSH0 KECCAK256 PUSH0 DUP3 DUP3 SLOAD PUSH2 0x5CE SWAP2 SWAP1 PUSH2 0x134B JUMP JUMPDEST SWAP3 POP POP DUP2 SWAP1 SSTORE POP POP POP POP JUMP JUMPDEST PUSH1 0x2 SLOAD DUP2 JUMP JUMPDEST PUSH1 0x1 PUSH1 0x20 MSTORE DUP2 PUSH0 MSTORE PUSH1 0x40 PUSH0 KECCAK256 PUSH1 0x20 MSTORE DUP1 PUSH0 MSTORE PUSH1 0x40 PUSH0 KECCAK256 PUSH0 SWAP2 POP SWAP2 POP POP SLOAD DUP2 JUMP JUMPDEST PUSH0 DUP1 PUSH0 DUP6 DUP2 MSTORE PUSH1 0x20 ADD SWAP1 DUP2 MSTORE PUSH1 0x20 ADD PUSH0 KECCAK256 PUSH1 0x2 ADD SLOAD SUB PUSH2 0x655 JUMPI PUSH1 0x40 MLOAD PUSH32 0x8C379A000000000000000000000000000000000000000000000000000000000 DUP2 MSTORE PUSH1 0x4 ADD PUSH2 0x64C SWAP1 PUSH2 0x10F3 JUMP JUMPDEST PUSH1 0x40 MLOAD DUP1 SWAP2 SUB SWAP1 REVERT JUMPDEST TIMESTAMP PUSH0 DUP1 DUP6 DUP2 MSTORE PUSH1 0x20 ADD SWAP1 DUP2 MSTORE PUSH1 0x20 ADD PUSH0 KECCAK256 PUSH1 0x2 ADD SLOAD GT PUSH2 0x6AA JUMPI PUSH1 0x40 MLOAD PUSH32 0x8C379A000000000000000000000000000000000000000000000000000000000 DUP2 MSTORE PUSH1 0x4 ADD PUSH2 0x6A1 SWAP1 PUSH2 0x115B JUMP JUMPDEST PUSH1 0x40 MLOAD DUP1 SWAP2 SUB SWAP1 REVERT JUMPDEST DUP2 PUSH1 0x1 PUSH0 CALLER PUSH20 0xFFFFFFFFFFFFFFFFFFFFFFFFFFFFFFFFFFFFFFFF AND PUSH20 0xFFFFFFFFFFFFFFFFFFFFFFFFFFFFFFFFFFFFFFFF AND DUP2 MSTORE PUSH1 0x20 ADD SWAP1 DUP2 MSTORE PUSH1 0x20 ADD PUSH0 KECCAK256 PUSH0 DUP6 DUP2 MSTORE PUSH1 0x20 ADD SWAP1 DUP2 MSTORE PUSH1 0x20 ADD PUSH0 KECCAK256 SLOAD LT ISZERO PUSH2 0x739 JUMPI PUSH1 0x40 MLOAD PUSH32 0x8C379A000000000000000000000000000000000000000000000000000000000 DUP2 MSTORE PUSH1 0x4 ADD PUSH2 0x730 SWAP1 PUSH2 0x13C8 JUMP JUMPDEST PUSH1 0x40 MLOAD DUP1 SWAP2 SUB SWAP1 REVERT JUMPDEST DUP2 PUSH1 0x1 PUSH0 CALLER PUSH20 0xFFFFFFFFFFFFFFFFFFFFFFFFFFFFFFFFFFFFFFFF AND PUSH20 0xFFFFFFFFFFFFFFFFFFFFFFFFFFFFFFFFFFFFFFFF AND DUP2 MSTORE PUSH1 0x20 ADD SWAP1 DUP2 MSTORE PUSH1 0x20 ADD PUSH0 KECCAK256 PUSH0 DUP6 DUP2 MSTORE PUSH1 0x20 ADD SWAP1 DUP2 MSTORE PUSH1 0x20 ADD PUSH0 KECCAK256 PUSH0 DUP3 DUP3 SLOAD PUSH2 0x794 SWAP2 SWAP1 PUSH2 0x1318 JUMP JUMPDEST SWAP3 POP POP DUP2 SWAP1 SSTORE POP DUP2 PUSH1 0x1 PUSH0 DUP4 PUSH20 0xFFFFFFFFFFFFFFFFFFFFFFFFFFFFFFFFFFFFFFFF AND PUSH20 0xFFFFFFFFFFFFFFFFFFFFFFFFFFFFFFFFFFFFFFFF AND DUP2 MSTORE PUSH1 0x20 ADD SWAP1 DUP2 MSTORE PUSH1 0x20 ADD PUSH0 KECCAK256 PUSH0 DUP6 DUP2 MSTORE PUSH1 0x20 ADD SWAP1 DUP2 MSTORE PUSH1 0x20 ADD PUSH0 KECCAK256 PUSH0 DUP3 DUP3 SLOAD PUSH2 0x7F6 SWAP2 SWAP1 PUSH2 0x134B JUMP JUMPDEST SWAP3 POP POP DUP2 SWAP1 SSTORE POP POP POP POP JUMP JUMPDEST PUSH0 PUSH1 0x40 MLOAD SWAP1 POP SWAP1 JUMP JUMPDEST PUSH0 DUP1 REVERT JUMPDEST PUSH0 DUP1 REVERT JUMPDEST PUSH0 DUP1 REVERT JUMPDEST PUSH0 DUP1 REVERT JUMPDEST PUSH0 PUSH1 0x1F NOT PUSH1 0x1F DUP4 ADD AND SWAP1 POP SWAP2 SWAP1 POP JUMP JUMPDEST PUSH32 0x4E487B7100000000000000000000000000000000000000000000000000000000 PUSH0 MSTORE PUSH1 0x41 PUSH1 0x4 MSTORE PUSH1 0x24 PUSH0 REVERT JUMPDEST PUSH2 0x861 DUP3 PUSH2 0x81B JUMP JUMPDEST DUP2 ADD DUP2 DUP2 LT PUSH8 0xFFFFFFFFFFFFFFFF DUP3 GT OR ISZERO PUSH2 0x880 JUMPI PUSH2 0x87F PUSH2 0x82B JUMP JUMPDEST JUMPDEST DUP1 PUSH1 0x40 MSTORE POP POP POP JUMP JUMPDEST PUSH0 PUSH2 0x892 PUSH2 0x802 JUMP JUMPDEST SWAP1 POP PUSH2 0x89E DUP3 DUP3 PUSH2 0x858 JUMP JUMPDEST SWAP2 SWAP1 POP JUMP JUMPDEST PUSH0 PUSH8 0xFFFFFFFFFFFFFFFF DUP3 GT ISZERO PUSH2 0x8BD JUMPI PUSH2 0x8BC PUSH2 0x82B JUMP JUMPDEST JUMPDEST PUSH2 0x8C6 DUP3 PUSH2 0x81B JUMP JUMPDEST SWAP1 POP PUSH1 0x20 DUP2 ADD SWAP1 POP SWAP2 SWAP1 POP JUMP JUMPDEST DUP3 DUP2 DUP4 CALLDATACOPY PUSH0 DUP4 DUP4 ADD MSTORE POP POP POP JUMP JUMPDEST PUSH0 PUSH2 0x8F3 PUSH2 0x8EE DUP5 PUSH2 0x8A3 JUMP JUMPDEST PUSH2 0x889 JUMP JUMPDEST SWAP1 POP DUP3 DUP2 MSTORE PUSH1 0x20 DUP2 ADD DUP5 DUP5 DUP5 ADD GT ISZERO PUSH2 0x90F JUMPI PUSH2 0x90E PUSH2 0x817 JUMP JUMPDEST JUMPDEST PUSH2 0x91A DUP5 DUP3 DUP6 PUSH2 0x8D3 JUMP JUMPDEST POP SWAP4 SWAP3 POP POP POP JUMP JUMPDEST PUSH0 DUP3 PUSH1 0x1F DUP4 ADD SLT PUSH2 0x936 JUMPI PUSH2 0x935 PUSH2 0x813 JUMP JUMPDEST JUMPDEST DUP2 CALLDATALOAD PUSH2 0x946 DUP5 DUP3 PUSH1 0x20 DUP7 ADD PUSH2 0x8E1 JUMP JUMPDEST SWAP2 POP POP SWAP3 SWAP2 POP POP JUMP JUMPDEST PUSH0 DUP2 SWAP1 POP SWAP2 SWAP1 POP JUMP JUMPDEST PUSH2 0x961 DUP2 PUSH2 0x94F JUMP JUMPDEST DUP2 EQ PUSH2 0x96B JUMPI PUSH0 DUP1 REVERT JUMPDEST POP JUMP JUMPDEST PUSH0 DUP2 CALLDATALOAD SWAP1 POP PUSH2 0x97C DUP2 PUSH2 0x958 JUMP JUMPDEST SWAP3 SWAP2 POP POP JUMP JUMPDEST PUSH0 DUP1 PUSH0 DUP1 PUSH1 0x80 DUP6 DUP8 SUB SLT ISZERO PUSH2 0x99A JUMPI PUSH2 0x999 PUSH2 0x80B JUMP JUMPDEST JUMPDEST PUSH0 DUP6 ADD CALLDATALOAD PUSH8 0xFFFFFFFFFFFFFFFF DUP2 GT ISZERO PUSH2 0x9B7 JUMPI PUSH2 0x9B6 PUSH2 0x80F JUMP JUMPDEST JUMPDEST PUSH2 0x9C3 DUP8 DUP3 DUP9 ADD PUSH2 0x922 JUMP JUMPDEST SWAP5 POP POP PUSH1 0x20 PUSH2 0x9D4 DUP8 DUP3 DUP9 ADD PUSH2 0x96E JUMP JUMPDEST SWAP4 POP POP PUSH1 0x40 PUSH2 0x9E5 DUP8 DUP3 DUP9 ADD PUSH2 0x96E JUMP JUMPDEST SWAP3 POP POP PUSH1 0x60 PUSH2 0x9F6 DUP8 DUP3 DUP9 ADD PUSH2 0x96E JUMP JUMPDEST SWAP2 POP POP SWAP3 SWAP6 SWAP2 SWAP5 POP SWAP3 POP JUMP JUMPDEST PUSH0 PUSH1 0x20 DUP3 DUP5 SUB SLT ISZERO PUSH2 0xA17 JUMPI PUSH2 0xA16 PUSH2 0x80B JUMP JUMPDEST JUMPDEST PUSH0 PUSH2 0xA24 DUP5 DUP3 DUP6 ADD PUSH2 0x96E JUMP JUMPDEST SWAP2 POP POP SWAP3 SWAP2 POP POP JUMP JUMPDEST PUSH0 PUSH20 0xFFFFFFFFFFFFFFFFFFFFFFFFFFFFFFFFFFFFFFFF DUP3 AND SWAP1 POP SWAP2 SWAP1 POP JUMP JUMPDEST PUSH0 PUSH2 0xA56 DUP3 PUSH2 0xA2D JUMP JUMPDEST SWAP1 POP SWAP2 SWAP1 POP JUMP JUMPDEST PUSH2 0xA66 DUP2 PUSH2 0xA4C JUMP JUMPDEST DUP3 MSTORE POP POP JUMP JUMPDEST PUSH0 DUP2 MLOAD SWAP1 POP SWAP2 SWAP1 POP JUMP JUMPDEST PUSH0 DUP3 DUP3 MSTORE PUSH1 0x20 DUP3 ADD SWAP1 POP SWAP3 SWAP2 POP POP JUMP JUMPDEST DUP3 DUP2 DUP4 MCOPY PUSH0 DUP4 DUP4 ADD MSTORE POP POP POP JUMP JUMPDEST PUSH0 PUSH2 0xA9E DUP3 PUSH2 0xA6C JUMP JUMPDEST PUSH2 0xAA8 DUP2 DUP6 PUSH2 0xA76 JUMP JUMPDEST SWAP4 POP PUSH2 0xAB8 DUP2 DUP6 PUSH1 0x20 DUP7 ADD PUSH2 0xA86 JUMP JUMPDEST PUSH2 0xAC1 DUP2 PUSH2 0x81B JUMP JUMPDEST DUP5 ADD SWAP2 POP POP SWAP3 SWAP2 POP POP JUMP JUMPDEST PUSH2 0xAD5 DUP2 PUSH2 0x94F JUMP JUMPDEST DUP3 MSTORE POP POP JUMP JUMPDEST PUSH0 PUSH1 0xC0 DUP3 ADD SWAP1 POP PUSH2 0xAEE PUSH0 DUP4 ADD DUP10 PUSH2 0xA5D JUMP JUMPDEST DUP2 DUP2 SUB PUSH1 0x20 DUP4 ADD MSTORE PUSH2 0xB00 DUP2 DUP9 PUSH2 0xA94 JUMP JUMPDEST SWAP1 POP PUSH2 0xB0F PUSH1 0x40 DUP4 ADD DUP8 PUSH2 0xACC JUMP JUMPDEST PUSH2 0xB1C PUSH1 0x60 DUP4 ADD DUP7 PUSH2 0xACC JUMP JUMPDEST PUSH2 0xB29 PUSH1 0x80 DUP4 ADD DUP6 PUSH2 0xACC JUMP JUMPDEST PUSH2 0xB36 PUSH1 0xA0 DUP4 ADD DUP5 PUSH2 0xACC JUMP JUMPDEST SWAP8 SWAP7 POP POP POP POP POP POP POP JUMP JUMPDEST PUSH0 DUP1 PUSH1 0x40 DUP4 DUP6 SUB SLT ISZERO PUSH2 0xB57 JUMPI PUSH2 0xB56 PUSH2 0x80B JUMP JUMPDEST JUMPDEST PUSH0 PUSH2 0xB64 DUP6 DUP3 DUP7 ADD PUSH2 0x96E JUMP JUMPDEST SWAP3 POP POP PUSH1 0x20 PUSH2 0xB75 DUP6 DUP3 DUP7 ADD PUSH2 0x96E JUMP JUMPDEST SWAP2 POP POP SWAP3 POP SWAP3 SWAP1 POP JUMP JUMPDEST PUSH0 PUSH1 0x20 DUP3 ADD SWAP1 POP PUSH2 0xB92 PUSH0 DUP4 ADD DUP5 PUSH2 0xACC JUMP JUMPDEST SWAP3 SWAP2 POP POP JUMP JUMPDEST PUSH2 0xBA1 DUP2 PUSH2 0xA4C JUMP JUMPDEST DUP2 EQ PUSH2 0xBAB JUMPI PUSH0 DUP1 REVERT JUMPDEST POP JUMP JUMPDEST PUSH0 DUP2 CALLDATALOAD SWAP1 POP PUSH2 0xBBC DUP2 PUSH2 0xB98 JUMP JUMPDEST SWAP3 SWAP2 POP POP JUMP JUMPDEST PUSH0 DUP1 PUSH1 0x40 DUP4 DUP6 SUB SLT ISZERO PUSH2 0xBD8 JUMPI PUSH2 0xBD7 PUSH2 0x80B JUMP JUMPDEST JUMPDEST PUSH0 PUSH2 0xBE5 DUP6 DUP3 DUP7 ADD PUSH2 0xBAE JUMP JUMPDEST SWAP3 POP POP PUSH1 0x20 PUSH2 0xBF6 DUP6 DUP3 DUP7 ADD PUSH2 0x96E JUMP JUMPDEST SWAP2 POP POP SWAP3 POP SWAP3 SWAP1 POP JUMP JUMPDEST PUSH0 DUP1 PUSH0 PUSH1 0x60 DUP5 DUP7 SUB SLT ISZERO PUSH2 0xC17 JUMPI PUSH2 0xC16 PUSH2 0x80B JUMP JUMPDEST JUMPDEST PUSH0 PUSH2 0xC24 DUP7 DUP3 DUP8 ADD PUSH2 0x96E JUMP JUMPDEST SWAP4 POP POP PUSH1 0x20 PUSH2 0xC35 DUP7 DUP3 DUP8 ADD PUSH2 0x96E JUMP JUMPDEST SWAP3 POP POP PUSH1 0x40 PUSH2 0xC46 DUP7 DUP3 DUP8 ADD PUSH2 0xBAE JUMP JUMPDEST SWAP2 POP POP SWAP3 POP SWAP3 POP SWAP3 JUMP JUMPDEST PUSH32 0x796F752063616E206F7267616E697A65206576656E7420666F72206675747572 PUSH0 DUP3 ADD MSTORE PUSH32 0x6520646174650000000000000000000000000000000000000000000000000000 PUSH1 0x20 DUP3 ADD MSTORE POP JUMP JUMPDEST PUSH0 PUSH2 0xCAA PUSH1 0x26 DUP4 PUSH2 0xA76 JUMP JUMPDEST SWAP2 POP PUSH2 0xCB5 DUP3 PUSH2 0xC50 JUMP JUMPDEST PUSH1 0x40 DUP3 ADD SWAP1 POP SWAP2 SWAP1 POP JUMP JUMPDEST PUSH0 PUSH1 0x20 DUP3 ADD SWAP1 POP DUP2 DUP2 SUB PUSH0 DUP4 ADD MSTORE PUSH2 0xCD7 DUP2 PUSH2 0xC9E JUMP JUMPDEST SWAP1 POP SWAP2 SWAP1 POP JUMP JUMPDEST PUSH32 0x796F752063616E206F7267616E697A65206576656E7420696620796F75206372 PUSH0 DUP3 ADD MSTORE PUSH32 0x65617465206D6F7265207468656E2030207469636B6574730000000000000000 PUSH1 0x20 DUP3 ADD MSTORE POP JUMP JUMPDEST PUSH0 PUSH2 0xD38 PUSH1 0x38 DUP4 PUSH2 0xA76 JUMP JUMPDEST SWAP2 POP PUSH2 0xD43 DUP3 PUSH2 0xCDE JUMP JUMPDEST PUSH1 0x40 DUP3 ADD SWAP1 POP SWAP2 SWAP1 POP JUMP JUMPDEST PUSH0 PUSH1 0x20 DUP3 ADD SWAP1 POP DUP2 DUP2 SUB PUSH0 DUP4 ADD MSTORE PUSH2 0xD65 DUP2 PUSH2 0xD2C JUMP JUMPDEST SWAP1 POP SWAP2 SWAP1 POP JUMP JUMPDEST PUSH32 0x4E487B7100000000000000000000000000000000000000000000000000000000 PUSH0 MSTORE PUSH1 0x22 PUSH1 0x4 MSTORE PUSH1 0x24 PUSH0 REVERT JUMPDEST PUSH0 PUSH1 0x2 DUP3 DIV SWAP1 POP PUSH1 0x1 DUP3 AND DUP1 PUSH2 0xDB0 JUMPI PUSH1 0x7F DUP3 AND SWAP2 POP JUMPDEST PUSH1 0x20 DUP3 LT DUP2 SUB PUSH2 0xDC3 JUMPI PUSH2 0xDC2 PUSH2 0xD6C JUMP JUMPDEST JUMPDEST POP SWAP2 SWAP1 POP JUMP JUMPDEST PUSH0 DUP2 SWAP1 POP DUP2 PUSH0 MSTORE PUSH1 0x20 PUSH0 KECCAK256 SWAP1 POP SWAP2 SWAP1 POP JUMP JUMPDEST PUSH0 PUSH1 0x20 PUSH1 0x1F DUP4 ADD DIV SWAP1 POP SWAP2 SWAP1 POP JUMP JUMPDEST PUSH0 DUP3 DUP3 SHL SWAP1 POP SWAP3 SWAP2 POP POP JUMP JUMPDEST PUSH0 PUSH1 0x8 DUP4 MUL PUSH2 0xE25 PUSH32 0xFFFFFFFFFFFFFFFFFFFFFFFFFFFFFFFFFFFFFFFFFFFFFFFFFFFFFFFFFFFFFFFF DUP3 PUSH2 0xDEA JUMP JUMPDEST PUSH2 0xE2F DUP7 DUP4 PUSH2 0xDEA JUMP JUMPDEST SWAP6 POP DUP1 NOT DUP5 AND SWAP4 POP DUP1 DUP7 AND DUP5 OR SWAP3 POP POP POP SWAP4 SWAP3 POP POP POP JUMP JUMPDEST PUSH0 DUP2 SWAP1 POP SWAP2 SWAP1 POP JUMP JUMPDEST PUSH0 PUSH2 0xE6A PUSH2 0xE65 PUSH2 0xE60 DUP5 PUSH2 0x94F JUMP JUMPDEST PUSH2 0xE47 JUMP JUMPDEST PUSH2 0x94F JUMP JUMPDEST SWAP1 POP SWAP2 SWAP1 POP JUMP JUMPDEST PUSH0 DUP2 SWAP1 POP SWAP2 SWAP1 POP JUMP JUMPDEST PUSH2 0xE83 DUP4 PUSH2 0xE50 JUMP JUMPDEST PUSH2 0xE97 PUSH2 0xE8F DUP3 PUSH2 0xE71 JUMP JUMPDEST DUP5 DUP5 SLOAD PUSH2 0xDF6 JUMP JUMPDEST DUP3 SSTORE POP POP POP POP JUMP JUMPDEST PUSH0 SWAP1 JUMP JUMPDEST PUSH2 0xEAB PUSH2 0xE9F JUMP JUMPDEST PUSH2 0xEB6 DUP2 DUP5 DUP5 PUSH2 0xE7A JUMP JUMPDEST POP POP POP JUMP JUMPDEST JUMPDEST DUP2 DUP2 LT ISZERO PUSH2 0xED9 JUMPI PUSH2 0xECE PUSH0 DUP3 PUSH2 0xEA3 JUMP JUMPDEST PUSH1 0x1 DUP2 ADD SWAP1 POP PUSH2 0xEBC JUMP JUMPDEST POP POP JUMP JUMPDEST PUSH1 0x1F DUP3 GT ISZERO PUSH2 0xF1E JUMPI PUSH2 0xEEF DUP2 PUSH2 0xDC9 JUMP JUMPDEST PUSH2 0xEF8 DUP5 PUSH2 0xDDB JUMP JUMPDEST DUP2 ADD PUSH1 0x20 DUP6 LT ISZERO PUSH2 0xF07 JUMPI DUP2 SWAP1 POP JUMPDEST PUSH2 0xF1B PUSH2 0xF13 DUP6 PUSH2 0xDDB JUMP JUMPDEST DUP4 ADD DUP3 PUSH2 0xEBB JUMP JUMPDEST POP POP JUMPDEST POP POP POP JUMP JUMPDEST PUSH0 DUP3 DUP3 SHR SWAP1 POP SWAP3 SWAP2 POP POP JUMP JUMPDEST PUSH0 PUSH2 0xF3E PUSH0 NOT DUP5 PUSH1 0x8 MUL PUSH2 0xF23 JUMP JUMPDEST NOT DUP1 DUP4 AND SWAP2 POP POP SWAP3 SWAP2 POP POP JUMP JUMPDEST PUSH0 PUSH2 0xF56 DUP4 DUP4 PUSH2 0xF2F JUMP JUMPDEST SWAP2 POP DUP3 PUSH1 0x2 MUL DUP3 OR SWAP1 POP SWAP3 SWAP2 POP POP JUMP JUMPDEST PUSH2 0xF6F DUP3 PUSH2 0xA6C JUMP JUMPDEST PUSH8 0xFFFFFFFFFFFFFFFF DUP2 GT ISZERO PUSH2 0xF88 JUMPI PUSH2 0xF87 PUSH2 0x82B JUMP JUMPDEST JUMPDEST PUSH2 0xF92 DUP3 SLOAD PUSH2 0xD99 JUMP JUMPDEST PUSH2 0xF9D DUP3 DUP3 DUP6 PUSH2 0xEDD JUMP JUMPDEST PUSH0 PUSH1 0x20 SWAP1 POP PUSH1 0x1F DUP4 GT PUSH1 0x1 DUP2 EQ PUSH2 0xFCE JUMPI PUSH0 DUP5 ISZERO PUSH2 0xFBC JUMPI DUP3 DUP8 ADD MLOAD SWAP1 POP JUMPDEST PUSH2 0xFC6 DUP6 DUP3 PUSH2 0xF4B JUMP JUMPDEST DUP7 SSTORE POP PUSH2 0x102D JUMP JUMPDEST PUSH1 0x1F NOT DUP5 AND PUSH2 0xFDC DUP7 PUSH2 0xDC9 JUMP JUMPDEST PUSH0 JUMPDEST DUP3 DUP2 LT ISZERO PUSH2 0x1003 JUMPI DUP5 DUP10 ADD MLOAD DUP3 SSTORE PUSH1 0x1 DUP3 ADD SWAP2 POP PUSH1 0x20 DUP6 ADD SWAP5 POP PUSH1 0x20 DUP2 ADD SWAP1 POP PUSH2 0xFDE JUMP JUMPDEST DUP7 DUP4 LT ISZERO PUSH2 0x1020 JUMPI DUP5 DUP10 ADD MLOAD PUSH2 0x101C PUSH1 0x1F DUP10 AND DUP3 PUSH2 0xF2F JUMP JUMPDEST DUP4 SSTORE POP JUMPDEST PUSH1 0x1 PUSH1 0x2 DUP9 MUL ADD DUP9 SSTORE POP POP POP JUMPDEST POP POP POP POP POP POP JUMP JUMPDEST PUSH32 0x4E487B7100000000000000000000000000000000000000000000000000000000 PUSH0 MSTORE PUSH1 0x11 PUSH1 0x4 MSTORE PUSH1 0x24 PUSH0 REVERT JUMPDEST PUSH0 PUSH2 0x106C DUP3 PUSH2 0x94F JUMP JUMPDEST SWAP2 POP PUSH32 0xFFFFFFFFFFFFFFFFFFFFFFFFFFFFFFFFFFFFFFFFFFFFFFFFFFFFFFFFFFFFFFFF DUP3 SUB PUSH2 0x109E JUMPI PUSH2 0x109D PUSH2 0x1035 JUMP JUMPDEST JUMPDEST PUSH1 0x1 DUP3 ADD SWAP1 POP SWAP2 SWAP1 POP JUMP JUMPDEST PUSH32 0x4576656E7420646F6573206E6F74206578697374000000000000000000000000 PUSH0 DUP3 ADD MSTORE POP JUMP JUMPDEST PUSH0 PUSH2 0x10DD PUSH1 0x14 DUP4 PUSH2 0xA76 JUMP JUMPDEST SWAP2 POP PUSH2 0x10E8 DUP3 PUSH2 0x10A9 JUMP JUMPDEST PUSH1 0x20 DUP3 ADD SWAP1 POP SWAP2 SWAP1 POP JUMP JUMPDEST PUSH0 PUSH1 0x20 DUP3 ADD SWAP1 POP DUP2 DUP2 SUB PUSH0 DUP4 ADD MSTORE PUSH2 0x110A DUP2 PUSH2 0x10D1 JUMP JUMPDEST SWAP1 POP SWAP2 SWAP1 POP JUMP JUMPDEST PUSH32 0x4576656E742068617320616C7265616479206F6363757265642E000000000000 PUSH0 DUP3 ADD MSTORE POP JUMP JUMPDEST PUSH0 PUSH2 0x1145 PUSH1 0x1A DUP4 PUSH2 0xA76 JUMP JUMPDEST SWAP2 POP PUSH2 0x1150 DUP3 PUSH2 0x1111 JUMP JUMPDEST PUSH1 0x20 DUP3 ADD SWAP1 POP SWAP2 SWAP1 POP JUMP JUMPDEST PUSH0 PUSH1 0x20 DUP3 ADD SWAP1 POP DUP2 DUP2 SUB PUSH0 DUP4 ADD MSTORE PUSH2 0x1172 DUP2 PUSH2 0x1139 JUMP JUMPDEST SWAP1 POP SWAP2 SWAP1 POP JUMP JUMPDEST PUSH32 0x4D696E696D756E2031207469636B6574207175616E7469747920796F75206275 PUSH0 DUP3 ADD MSTORE PUSH32 0x7900000000000000000000000000000000000000000000000000000000000000 PUSH1 0x20 DUP3 ADD MSTORE POP JUMP JUMPDEST PUSH0 PUSH2 0x11D3 PUSH1 0x21 DUP4 PUSH2 0xA76 JUMP JUMPDEST SWAP2 POP PUSH2 0x11DE DUP3 PUSH2 0x1179 JUMP JUMPDEST PUSH1 0x40 DUP3 ADD SWAP1 POP SWAP2 SWAP1 POP JUMP JUMPDEST PUSH0 PUSH1 0x20 DUP3 ADD SWAP1 POP DUP2 DUP2 SUB PUSH0 DUP4 ADD MSTORE PUSH2 0x1200 DUP2 PUSH2 0x11C7 JUMP JUMPDEST SWAP1 POP SWAP2 SWAP1 POP JUMP JUMPDEST PUSH0 PUSH2 0x1211 DUP3 PUSH2 0x94F JUMP JUMPDEST SWAP2 POP PUSH2 0x121C DUP4 PUSH2 0x94F JUMP JUMPDEST SWAP3 POP DUP3 DUP3 MUL PUSH2 0x122A DUP2 PUSH2 0x94F JUMP JUMPDEST SWAP2 POP DUP3 DUP3 DIV DUP5 EQ DUP4 ISZERO OR PUSH2 0x1241 JUMPI PUSH2 0x1240 PUSH2 0x1035 JUMP JUMPDEST JUMPDEST POP SWAP3 SWAP2 POP POP JUMP JUMPDEST PUSH32 0x4574686572206973206E6F7420656E6F75676800000000000000000000000000 PUSH0 DUP3 ADD MSTORE POP JUMP JUMPDEST PUSH0 PUSH2 0x127C PUSH1 0x13 DUP4 PUSH2 0xA76 JUMP JUMPDEST SWAP2 POP PUSH2 0x1287 DUP3 PUSH2 0x1248 JUMP JUMPDEST PUSH1 0x20 DUP3 ADD SWAP1 POP SWAP2 SWAP1 POP JUMP JUMPDEST PUSH0 PUSH1 0x20 DUP3 ADD SWAP1 POP DUP2 DUP2 SUB PUSH0 DUP4 ADD MSTORE PUSH2 0x12A9 DUP2 PUSH2 0x1270 JUMP JUMPDEST SWAP1 POP SWAP2 SWAP1 POP JUMP JUMPDEST PUSH32 0x4E6F7420656E6F756768207469636B6574730000000000000000000000000000 PUSH0 DUP3 ADD MSTORE POP JUMP JUMPDEST PUSH0 PUSH2 0x12E4 PUSH1 0x12 DUP4 PUSH2 0xA76 JUMP JUMPDEST SWAP2 POP PUSH2 0x12EF DUP3 PUSH2 0x12B0 JUMP JUMPDEST PUSH1 0x20 DUP3 ADD SWAP1 POP SWAP2 SWAP1 POP JUMP JUMPDEST PUSH0 PUSH1 0x20 DUP3 ADD SWAP1 POP DUP2 DUP2 SUB PUSH0 DUP4 ADD MSTORE PUSH2 0x1311 DUP2 PUSH2 0x12D8 JUMP JUMPDEST SWAP1 POP SWAP2 SWAP1 POP JUMP JUMPDEST PUSH0 PUSH2 0x1322 DUP3 PUSH2 0x94F JUMP JUMPDEST SWAP2 POP PUSH2 0x132D DUP4 PUSH2 0x94F JUMP JUMPDEST SWAP3 POP DUP3 DUP3 SUB SWAP1 POP DUP2 DUP2 GT ISZERO PUSH2 0x1345 JUMPI PUSH2 0x1344 PUSH2 0x1035 JUMP JUMPDEST JUMPDEST SWAP3 SWAP2 POP POP JUMP JUMPDEST PUSH0 PUSH2 0x1355 DUP3 PUSH2 0x94F JUMP JUMPDEST SWAP2 POP PUSH2 0x1360 DUP4 PUSH2 0x94F JUMP JUMPDEST SWAP3 POP DUP3 DUP3 ADD SWAP1 POP DUP1 DUP3 GT ISZERO PUSH2 0x1378 JUMPI PUSH2 0x1377 PUSH2 0x1035 JUMP JUMPDEST JUMPDEST SWAP3 SWAP2 POP POP JUMP JUMPDEST PUSH32 0x796F7520646F206E6F74206861766520656E6F756768207469636B6574730000 PUSH0 DUP3 ADD MSTORE POP JUMP JUMPDEST PUSH0 PUSH2 0x13B2 PUSH1 0x1E DUP4 PUSH2 0xA76 JUMP JUMPDEST SWAP2 POP PUSH2 0x13BD DUP3 PUSH2 0x137E JUMP JUMPDEST PUSH1 0x20 DUP3 ADD SWAP1 POP SWAP2 SWAP1 POP JUMP JUMPDEST PUSH0 PUSH1 0x20 DUP3 ADD SWAP1 POP DUP2 DUP2 SUB PUSH0 DUP4 ADD MSTORE PUSH2 0x13DF DUP2 PUSH2 0x13A6 JUMP JUMPDEST SWAP1 POP SWAP2 SWAP1 POP JUMP INVALID LOG2 PUSH5 0x6970667358 0x22 SLT KECCAK256 SSTORE 0xFC DUP5 BASEFEE LOG0 0xAA CALLDATASIZE 0xD2 TIMESTAMP 0xC0 0xC7 0xCD 0xE5 0xD1 ADD PUSH6 0x2515A75BE7F2 CALL 0xFC CODECOPY POP PUSH16 0x9EC1B804F64736F6C634300081A0033 "
		},
		"gasEstimates": {
			"creation": {
				"codeDepositCost": "1029600",
				"executionCost": "1065",
				"totalCost": "1030665"
			},
			"external": {
				"buyTicket(uint256,uint256)": "infinite",
				"createEvent(string,uint256,uint256,uint256)": "infinite",
				"events(uint256)": "infinite",
				"nextId()": "2469",
				"tickets(address,uint256)": "infinite",
				"transferTicket(uint256,uint256,address)": "infinite"
			}
		},
		"methodIdentifiers": {
			"buyTicket(uint256,uint256)": "298ec208",
			"createEvent(string,uint256,uint256,uint256)": "0374ab0b",
			"events(uint256)": "0b791430",
			"nextId()": "61b8ce8c",
			"tickets(address,uint256)": "dae7a13c",
			"transferTicket(uint256,uint256,address)": "f086a09b"
		}
	},
	"abi": [
		{
			"inputs": [
				{
					"internalType": "uint256",
					"name": "_id",
					"type": "uint256"
				},
				{
					"internalType": "uint256",
					"name": "_quantity",
					"type": "uint256"
				}
			],
			"name": "buyTicket",
			"outputs": [],
			"stateMutability": "payable",
			"type": "function"
		},
		{
			"inputs": [
				{
					"internalType": "string",
					"name": "_name",
					"type": "string"
				},
				{
					"internalType": "uint256",
					"name": "_date",
					"type": "uint256"
				},
				{
					"internalType": "uint256",
					"name": "_price",
					"type": "uint256"
				},
				{
					"internalType": "uint256",
					"name": "_ticketCount",
					"type": "uint256"
				}
			],
			"name": "createEvent",
			"outputs": [],
			"stateMutability": "nonpayable",
			"type": "function"
		},
		{
			"inputs": [
				{
					"internalType": "uint256",
					"name": "",
					"type": "uint256"
				}
			],
			"name": "events",
			"outputs": [
				{
					"internalType": "address",
					"name": "organizer",
					"type": "address"
				},
				{
					"internalType": "string",
					"name": "name",
					"type": "string"
				},
				{
					"internalType": "uint256",
					"name": "date",
					"type": "uint256"
				},
				{
					"internalType": "uint256",
					"name": "price",
					"type": "uint256"
				},
				{
					"internalType": "uint256",
					"name": "ticketCount",
					"type": "uint256"
				},
				{
					"internalType": "uint256",
					"name": "ticketRemaining",
					"type": "uint256"
				}
			],
			"stateMutability": "view",
			"type": "function"
		},
		{
			"inputs": [],
			"name": "nextId",
			"outputs": [
				{
					"internalType": "uint256",
					"name": "",
					"type": "uint256"
				}
			],
			"stateMutability": "view",
			"type": "function"
		},
		{
			"inputs": [
				{
					"internalType": "address",
					"name": "",
					"type": "address"
				},
				{
					"internalType": "uint256",
					"name": "",
					"type": "uint256"
				}
			],
			"name": "tickets",
			"outputs": [
				{
					"internalType": "uint256",
					"name": "",
					"type": "uint256"
				}
			],
			"stateMutability": "view",
			"type": "function"
		},
		{
			"inputs": [
				{
					"internalType": "uint256",
					"name": "_id",
					"type": "uint256"
				},
				{
					"internalType": "uint256",
					"name": "_quantity",
					"type": "uint256"
				},
				{
					"internalType": "address",
					"name": "to",
					"type": "address"
				}
			],
			"name": "transferTicket",
			"outputs": [],
			"stateMutability": "nonpayable",
			"type": "function"
		}
	]
}